{
  "contractName": "voting",
  "abi": [
    {
      "inputs": [
        {
          "internalType": "uint256",
          "name": "idx",
          "type": "uint256"
        }
      ],
      "name": "increaseVote",
      "outputs": [],
      "stateMutability": "nonpayable",
      "type": "function"
    },
    {
      "inputs": [
        {
          "internalType": "uint256",
          "name": "idx",
          "type": "uint256"
        }
      ],
      "name": "getVotes",
      "outputs": [
        {
          "internalType": "uint256",
          "name": "",
          "type": "uint256"
        }
      ],
      "stateMutability": "view",
      "type": "function",
      "constant": true
    },
    {
      "inputs": [],
      "name": "getWinner",
      "outputs": [
        {
          "internalType": "uint256",
          "name": "",
          "type": "uint256"
        }
      ],
      "stateMutability": "view",
      "type": "function",
      "constant": true
    }
  ],
  "bytecode": "0x60806040526040518060800160405280600060ff168152602001600060ff168152602001600060ff168152602001600060ff168152506000906004610045929190610058565b5034801561005257600080fd5b506100ba565b826004810192821561008c579160200282015b8281111561008b578251829060ff1690559160200191906001019061006b565b5b509050610099919061009d565b5090565b5b808211156100b657600081600090555060010161009e565b5090565b6102d3806100c96000396000f3fe608060405234801561001057600080fd5b50600436106100415760003560e01c80638e7ea5b214610046578063bf3955e014610064578063ff98109914610080575b600080fd5b61004e6100b0565b60405161005b919061017e565b60405180910390f35b61007e600480360381019061007991906101ca565b610119565b005b61009a600480360381019061009591906101ca565b610147565b6040516100a7919061017e565b60405180910390f35b600080600090506000805b60048110156101105781600082600481106100d9576100d86101f7565b5b015411156100fd57600081600481106100f5576100f46101f7565b5b015491508092505b808061010890610255565b9150506100bb565b50819250505090565b6000816004811061012d5761012c6101f7565b5b01600081548092919061013f90610255565b919050555050565b600080826004811061015c5761015b6101f7565b5b01549050919050565b6000819050919050565b61017881610165565b82525050565b6000602082019050610193600083018461016f565b92915050565b600080fd5b6101a781610165565b81146101b257600080fd5b50565b6000813590506101c48161019e565b92915050565b6000602082840312156101e0576101df610199565b5b60006101ee848285016101b5565b91505092915050565b7f4e487b7100000000000000000000000000000000000000000000000000000000600052603260045260246000fd5b7f4e487b7100000000000000000000000000000000000000000000000000000000600052601160045260246000fd5b600061026082610165565b91507fffffffffffffffffffffffffffffffffffffffffffffffffffffffffffffffff820361029257610291610226565b5b60018201905091905056fea2646970667358221220c3b7825eab20fb2e4ad25fbe0b6ea07038fefd7830af23ae6411b615c56e4ecd64736f6c63430008110033",
  "immutableReferences": {},
  "source": "//SPDX-License-Identifier: UNLICENSED\r\npragma solidity ^0.8.6;\r\n\r\ncontract voting {\r\n    uint[4] votes = [0, 0, 0, 0];\r\n\r\n    function increaseVote(uint idx) public {\r\n        votes[idx]++;\r\n    }\r\n\r\n    function getVotes(uint idx) public view returns(uint){\r\n        return votes[idx];\r\n    }\r\n\r\n    function getWinner() public view returns(uint) {\r\n        uint winner = 0;\r\n        uint maxi = 0;\r\n\r\n        for(uint i=0; i<votes.length; i++) {\r\n            if(votes[i] > maxi) {\r\n                maxi = votes[i];\r\n                winner = i;\r\n            }\r\n        }\r\n\r\n        return winner;\r\n    }\r\n}",
  "sourcePath": "E:\\Blockchain Development\\Projects\\Voting_APP\\Server\\contracts\\voting.sol",
  "compiler": {
    "name": "solc",
    "version": "0.8.17+commit.8df45f5f.Emscripten.clang"
  },
  "schemaVersion": "3.4.11",
  "updatedAt": "2023-01-14T13:05:12.961Z",
  "networkType": "ethereum",
  "devdoc": {
    "kind": "dev",
    "methods": {},
    "version": 1
  },
  "userdoc": {
    "kind": "user",
    "methods": {},
    "version": 1
  }
}